:1000000000100020750100005B0100005B01000092
:100010005B0100005B0100005B01000000000000CC
:100020000000000000000000000000005B01000074
:100030005B010000000000005B0100005B010000AC
:1000400000203149086000203049086070472E4880
:10005000016851F005010160704730B4C1172C4AA6
:10006000D2E90023A2FB004502FB015503FB00552A
:10007000601E75F100012749086030BC70472648B2
:10008000016811F0F1010160244801686FF30F115C
:1000900001602348016851F00E01016021480168A8
:1000A00011F0F10101602048016851F00E0101607A
:1000B0001E48016811F0F1010160704780B5002011
:1000C00000901B48016851F0200101600068009019
:1000D000FFF7D5FFFFF7B4FF0220FFF7BEFFFFF7E2
:1000E000B6FF1248016811F0F10151F00E010160F4
:1000F00005490A68D203FBD5026812F0F1020260DA
:100100000868C003EDD4FBE710E000E018E000E071
:100110009001000014E000E0285502402C550240F8
:1001200000540240205402401C550240FC5302403F
:1001300008E10F4000F00DF8002801D0AFF3008077
:10014000AFF300800020AFF30080FFF7B7FF00F0AF
:1001500002F80120704700F001B8FEE70746384674
:1001600000F002F8FBE700002021090326311820E7
:10017000ABBEF9E70548014603B4684680F3098839
:10018000AFF30080AFF30080FFF7D4FFA5EDF5FEDD
:080190000024F400000000004F
:040000050000017581
:00000001FF
